:020000040000FA
:100000000C9462000C948A000C948A000C948A0070
:100010000C948A000C948A000C948A000C948A0038
:100020000C948A000C948A000C948A000C94450469
:100030000C948A000C948A000C948A000C948A0018
:100040000C94FB030C948A000C94C9030C94A30336
:100050000C948A000C948A000C948A000C948A00F8
:100060000C948A000C948A000000000024002700F1
:100070002A0000000000250028002B0000000000DE
:1000800023002600290004040404040404040202DA
:100090000202020203030303030301020408102007
:1000A0004080010204081020010204081020000012
:1000B0000008000201000003040700000000000027
:1000C00000001C0511241FBECFEFD8E0DEBFCDBF5E
:1000D00011E0A0E0B1E0E8E3F4E102C005900D9288
:1000E000AE3EB107D9F722E0AEEEB1E001C01D92FD
:1000F000A23EB207E1F710E0C2E6D0E004C02197CB
:10010000FE010E94140AC136D107C9F70E945805A2
:100110000C941A0A0C940000AF92BF92CF92DF9217
:10012000EF92FF920F931F93CF93DF936C017B01AC
:100130008B01040F151FEB015E01AE18BF08C0173D
:10014000D10759F06991D601ED91FC910190F081B0
:10015000E02DC6010995892B79F7C501DF91CF9173
:100160001F910F91FF90EF90DF90CF90BF90AF90D5
:100170000895FC01538D448D252F30E0842F90E0AD
:10018000821B930B541710F0CF9608950197089592
:10019000FC01918D828D981761F0A28DAE0FBF2F5B
:1001A000B11D5D968C91928D9F5F9F73928F90E0B1
:1001B00008958FEF9FEF0895FC01918D828D981720
:1001C00031F0828DE80FF11D858D90E008958FEF5D
:1001D0009FEF0895FC01918D228D892F90E0805C26
:1001E0009F4F821B91098F739927089589E392E0AD
:1001F0000E94EA0021E0892B09F420E0822F089573
:1002000080E090E0892B29F00E94F60081110C9487
:1002100000000895FC01A48DA80FB92FB11DA35AA9
:10022000BF4F2C91848D90E001968F739927848F16
:10023000A689B7892C93A089B1898C918370806439
:100240008C93938D848D981306C00288F389E02DDA
:1002500080818F7D80830895EF92FF920F931F938B
:10026000CF93DF93EC0181E0888F9B8D8C8D981369
:100270001AC0E889F989808185FF15C09FB7F89475
:10028000EE89FF896083E889F989808183708064C1
:1002900080839FBF81E090E0DF91CF911F910F910C
:1002A000FF90EF900895F62E0B8D10E00F5F1F4F1B
:1002B0000F731127E02E8C8D8E110CC00FB607FC2A
:1002C000FACFE889F989808185FFF5CFCE010E94B8
:1002D0000A01F1CFEB8DEC0FFD2FF11DE35AFF4F1B
:1002E000F0829FB7F8940B8FEA89FB898081806246
:1002F000CFCFCF93DF93EC01888D8823B9F0AA8903
:10030000BB89E889F9898C9185FD03C0808186FDD0
:100310000DC00FB607FCF7CF8C9185FFF2CF80811F
:1003200085FFEDCFCE010E940A01E9CFDF91CF9189
:100330000895833081F028F4813099F08230A9F05B
:1003400008958730A9F08830C9F08430B1F48091E5
:1003500080008F7D03C0809180008F778093800024
:10036000089584B58F7784BD089584B58F7DFBCFC4
:100370008091B0008F778093B00008958091B00095
:100380008F7DF9CFCF93DF93282F30E0F901E2552D
:10039000FF4F8491F901E656FF4FD491F901EA57D6
:1003A000FF4FC491CC23A1F081110E949901EC2F41
:1003B000F0E0EE0FFF1FE458FF4FA591B491EC91D0
:1003C000ED2381E090E009F480E0DF91CF91089582
:1003D00080E090E0FACF1F93CF93DF93282F30E097
:1003E000F901E255FF4F8491F901E656FF4FD49190
:1003F000F901EA57FF4FC491CC23A9F0162F8111C0
:100400000E949901EC2FF0E0EE0FFF1FEE58FF4F16
:10041000A591B4918FB7F894EC91111108C0D095C3
:10042000DE23DC938FBFDF91CF911F910895DE2BE8
:10043000F8CFCF93DF9390E0FC01E656FF4F249175
:100440008A579F4FFC0184918823D1F090E0880F58
:10045000991FFC01E859FF4FA591B491FC01EE589A
:10046000FF4FC591D49161110EC09FB7F8948C9144
:10047000E22FE0958E238C932881E223E8839FBFAF
:10048000DF91CF9108958FB7F894EC91E22BEC9324
:100490008FBFF6CF3FB7F8948091190290911A025E
:1004A000A0911B02B0911C0226B5A89B05C02F3F4E
:1004B00019F00196A11DB11D3FBFBA2FA92F982F8A
:1004C0008827BC01CD01620F711D811D911D42E085
:1004D000660F771F881F991F4A95D1F708958F924D
:1004E0009F92AF92BF92CF92DF92EF92FF926B01F9
:1004F0007C010E944A024B015C01C114D104E10459
:10050000F104B9F00E944A02681979098A099B0925
:10051000683E73408105910580F321E0C21AD1083D
:10052000E108F10888EE880E83E0981EA11CB11C3A
:10053000E4CFFF90EF90DF90CF90BF90AF909F906F
:100540008F9008952FB7F89460911502709116025C
:1005500080911702909118022FBF0895CF92DF92D9
:10056000EF92FF92CF93DF93EC01603282E0780745
:10057000CCF5653B710514F064EB70E0898128E8E7
:1005800030E0281B310987FD3395220F331F220FDE
:10059000331F6901330FEE08FF088A8128E532E036
:1005A000281B310987FD3395220F331F220F331F7C
:1005B000032E000C440B550B2C193D094E095F0905
:1005C000DB0177FF02C0B0E0A0E00E94CF0924EB7E
:1005D00030E040E050E00E94A509C20ED31EE41EA8
:1005E000F51EB601E881EC3070F5298188E890E0CD
:1005F000821B910927FD9395880F991F880F991FDA
:10060000681779077CF02A8188E592E0821B9109BE
:1006100027FD9395880F991F880F991F68177907F1
:100620000CF4CB010297880F991F4FB7F8942E2F27
:1006300030E0F901EE0FFF1FE20FF31FE051FE4F14
:10064000928381834FBFDF91CF91FF90EF90DF9036
:10065000CF9008951F93CF93DF93EC01162F8881DD
:100660008C3008F04EC061E0812F0E941902888111
:10067000282F30E0F901EE0FFF1FE20FF31FE051CA
:10068000FE4F1F736081607C612B608319821A8228
:100690002CE0622F0E94080A829FB001112430E0F2
:1006A00020E0AB01420F531FFA01EE0FFF1FE40FD2
:1006B000F51FE051FE4F908196FD16C02F5F3F4F12
:1006C0002C30310571F781110FC01092800082E04B
:1006D000809381001092850010928400B19A8091DD
:1006E0006F00826080936F00E8818E2F90E0FC01A4
:1006F000EE0FFF1FE80FF91FE051FE4F808180646D
:1007000080838881DF91CF911F910895CF93DF93EC
:10071000FC0101900020E9F73197AF01481B590B0C
:10072000BC0189E392E00E948C00EC0142E050E0C1
:1007300066E171E089E392E00E948C008C0F9D1FBE
:10074000DF91CF9108951F920F920FB60F9211244F
:100750002F933F934F935F936F937F938F939F93C9
:10076000AF93BF93EF93FF9389E392E00E940A0156
:10077000FF91EF91BF91AF919F918F917F916F9179
:100780005F914F913F912F910F900FBE0F901F904F
:1007900018951F920F920FB60F9211242F938F93DB
:1007A0009F93EF93FF93E0914902F0914A02808179
:1007B000E0914F02F091500282FD1BC09081809128
:1007C00052028F5F8F7320915302821741F0E091A4
:1007D0005202F0E0E75CFD4F958F80935202FF914B
:1007E000EF919F918F912F910F900FBE0F901F90BF
:1007F00018958081F4CF1F920F920FB60F9211249B
:100800002F933F938F939F93AF93BF938091150244
:1008100090911602A0911702B09118023091140223
:1008200023E0230F2D3758F50196A11DB11D20930C
:1008300014028093150290931602A0931702B093AE
:1008400018028091190290911A02A0911B02B09196
:100850001C020196A11DB11D8093190290931A02EA
:10086000A0931B02B0931C02BF91AF919F918F91F7
:100870003F912F910F900FBE0F901F90189526E873
:10088000230F0296A11DB11DD2CF1F920F920FB65A
:100890000F9211242F933F934F935F936F937F9306
:1008A0008F939F93AF93BF93CF93DF93EF93FF9378
:1008B0008091EE01C091EF01D0E087FF24C010923B
:1008C0008500109284008091EE018F5F8093EE018D
:1008D0008091EE01082E000C990B8C179D0724F4D3
:1008E0008091EE018C30C4F180918400909185005C
:1008F000049680349C4908F47AC0809184009091D9
:100900008500049676C08091EE01082E000C990BAC
:100910008C179D07C4F6E091EE018E2FEE0F990B18
:10092000FC01EE0FFF1FE80FF91FE051FE4F808121
:1009300086FFC9CFE091EE018E2FEE0F990BFC01DF
:10094000EE0FFF1FE80FF91FE051FE4F808160E0BE
:100950008F730E94EB01B7CF209184003091850006
:10096000E091EE018E2FEE0F990BFC01EE0FFF1FB1
:10097000E80FF91FE051FE4F81819281820F931F92
:100980009093890080938800E091EE018E2FEE0F06
:10099000990BFC01EE0FFF1FE80FF91FE051FE4F0E
:1009A000808186FF11C0E091EE018E2FEE0F990B32
:1009B000FC01EE0FFF1FE80FF91FE051FE4F808191
:1009C00061E08F730E94EB01FF91EF91DF91CF9176
:1009D000BF91AF919F918F917F916F915F914F9157
:1009E0003F912F910F900FBE0F901F90189580E4AC
:1009F0009CE990938900809388008FEF8093EE01AB
:100A0000E3CFFC019091EF019C3098F481E0890FD5
:100A10008093EF019083892F90E0FC01EE0FFF1F80
:100A2000E80FF91FE051FE4F88EB9BE09283818332
:100A300008958FEF80830895E9E3F2E01382128234
:100A400088EE93E0A0E0B0E084839583A683B7832B
:100A500088E091E09183808385EC90E0958784879E
:100A600084EC90E09787868780EC90E0918B808B78
:100A700081EC90E0938B828B82EC90E0958B848B61
:100A800086EC90E0978B868B118E128E138E148ECF
:100A90008FED92E00E9401058CED92E00E9401052D
:100AA00089ED92E00E94010586ED92E00C9401052B
:100AB000789484B5826084BD84B5816084BD85B539
:100AC000826085BD85B5816085BD80916E00816045
:100AD00080936E00109281008091810082608093EB
:100AE00081008091810081608093810080918000ED
:100AF0008160809380008091B10084608093B10018
:100B00008091B00081608093B00080917A00846011
:100B100080937A0080917A00826080937A0080913D
:100B20007A00816080937A0080917A008068809357
:100B30007A001092C100E0914902F0914A0282E0ED
:100B40008083E0914502F09146021082E0914702D5
:100B5000F09148028FEC808310925102E0914D0297
:100B6000F0914E0286E08083E0914B02F0914C02BE
:100B7000808180618083E0914B02F0914C02808102
:100B800088608083E0914B02F0914C028081806804
:100B90008083E0914B02F0914C0280818F7D8083B5
:100BA00089E191E00E9486038BE191E00E94860337
:100BB0008EE391E00E94860366E070E08FED92E0A4
:100BC0000E942A0369E070E08CED92E00E942A0303
:100BD0006AE070E089ED92E00E942A036BE070E029
:100BE00086ED92E00E942A0360E082E00E941902F2
:100BF00060E083E00E94190260E084E00E94190234
:100C000060E085E00E94190260E087E00E9419021E
:100C100060E088E00E94190260E08CE00E94190206
:100C200060E08EE00E94190261E082E00E94EB0128
:100C300061E083E00E94EB0161E084E00E94EB014F
:100C400061E085E00E94EB0161E087E00E94EB013A
:100C500061E088E00E94EB0161E08CE00E94EB0122
:100C600061E08EE00E94EB0161E08DE00E941902DC
:100C700061E08FE00E94190261E080E10E941902A8
:100C800061E081E10E94190261E082E10E941902A3
:100C900060E08DE00E94EB0160E08FE00E94EB01DC
:100CA00060E080E10E94EB0160E081E10E94EB01E5
:100CB00060E082E10E94EB0189E090E090933802CD
:100CC00080933702909331028093300290932A02EE
:100CD00080932902909323028093220269E070E0BE
:100CE0008FED92E00E94AE026AEF70E080E090E04B
:100CF0000E946F0269E070E08CED92E00E94AE020B
:100D00006AEF70E080E090E00E946F0269E070E0BE
:100D100089ED92E00E94AE026AEF70E080E090E020
:100D20000E946F0269E070E086ED92E00E94AE02E0
:100D30006AEF70E080E090E00E946F0288EC882EFD
:100D4000912CA12CB12C90E0C92E90E0D92E09E075
:100D500010E021E5E22EF12C61E082E00E94EB013F
:100D600061E083E00E94EB0161E084E00E94EB011E
:100D700061E085E00E94EB0161E087E00E94EB0109
:100D800061E088E00E94EB0161E08CE00E94EB01F1
:100D900061E08EE00E94EB010E94A202A501940195
:100DA0000E94D709622F61708DE00E94EB0182E002
:100DB0000E94C201892B09F5809137029091380277
:100DC0000E97DCF486E691E00E94860381E0809332
:100DD000360210933802009337026AEF70E080E029
:100DE00090E00E946F020E94A20260933202709310
:100DF0003302809334029093350283E00E94C20153
:100E0000892B11F580913702909138028D3491052C
:100E1000DCF087E791E00E94860382E0809336024F
:100E2000F0923802E09237026AEF70E080E090E0E2
:100E30000E946F020E94A2026093320270933302FA
:100E4000809334029093350284E00E94C201892B82
:100E500009F580913002909131020E97DCF488E818
:100E600091E00E94860381E080932F02109331026B
:100E7000009330026AEF70E080E090E00E946F0221
:100E80000E94A20260932B0270932C0280932D0289
:100E900090932E0285E00E94C201892B11F580916A
:100EA0003002909131028D349105DCF089E991E0B6
:100EB0000E94860382E080932F02F0923102E0923A
:100EC00030026AEF70E080E090E00E946F020E94C2
:100ED000A20260932B0270932C0280932D029093B8
:100EE0002E0287E00E94C201892B09F58091290218
:100EF00090912A020E97DCF48AEA91E00E94860320
:100F000081E08093280210932A02009329026AEF5D
:100F100070E080E090E00E946F020E94A202609365
:100F2000240270932502809326029093270288E082
:100F30000E94C201892B11F58091290290912A0209
:100F40008D349105DCF08BEB91E00E94860382E00A
:100F500080932802F0922A02E09229026AEF70E060
:100F600080E090E00E946F020E94A202609324023F
:100F70007093250280932602909327028CE00E94B2
:100F8000C201892B09F580912202909123020E97CC
:100F9000DCF48CEC91E00E94860381E080932102D6
:100FA00010932302009322026AEF70E080E090E049
:100FB0000E946F020E94A20260931D0270931E02A3
:100FC00080931F02909320028EE00E94C201892B21
:100FD00011F580912202909123028D349105DCF06D
:100FE0008DED91E00E94860382E080932102F092D1
:100FF0002302E09222026AEF70E080E090E00E941B
:101000006F020E94A20260931D0270931E028093E1
:101010001F029093200280913602813031F50E94A8
:10102000A2024090320250903302609034027090DD
:10103000350264197509860997096A3171058105B8
:101040009105E0F1C0913702D0913802BE018FEDD9
:1010500092E00E94AE022196D0933802C0933702EC
:10106000C135D1055CF11092360280913602823092
:1010700029F50E94A2024090320250903302609003
:1010800034027090350264197509860997096A312E
:1010900071058105910590F0C0913702D091380219
:1010A000BE018FED92E00E94AE022197D0933802EC
:1010B000C09337022A9714F41092360280912F02BF
:1010C000813031F50E94A20240902B0250902C02F8
:1010D00060902D0270902E02641975098609970997
:1010E0006A31710581059105E0F1C0913002D0911E
:1010F0003102BE018CED92E00E94AE022196D093A7
:101100003102C0933002C135D1055CF110922F023B
:1011100080912F02823029F50E94A20240902B027A
:1011200050902C0260902D0270902E026419750967
:10113000860997096A3171058105910590F0C09182
:101140003002D0913102BE018CED92E00E94AE02DD
:101150002197D0933102C09330022A9714F4109251
:101160002F0280912802813031F50E94A202409026
:101170002402509025026090260270902702641984
:101180007509860997096A31710581059105E0F1B4
:10119000C0912902D0912A02BE0189ED92E00E94FD
:1011A000AE022196D0932A02C0932902C135D105FF
:1011B0005CF11092280280912802823029F50E9469
:1011C000A202409024025090250260902602709066
:1011D000270264197509860997096A317105810525
:1011E000910590F0C0912902D0912A02BE0189EDAB
:1011F00092E00E94AE022197D0932A02C093290266
:101200002A9714F41092280280912102813031F53E
:101210000E94A20240901D0250901E0260901F0288
:101220007090200264197509860997096A31710561
:1012300081059105E0F1C0912202D0912302BE0107
:1012400086ED92E00E94AE022196D0932302C093D5
:101250002202C135D1055CF1109221028091210258
:10126000823029F50E94A20240901D0250901E0279
:1012700060901F0270902002641975098609970911
:101280006A3171058105910590F0C0912202D091DB
:101290002302BE0186ED92E00E94AE022197D09318
:1012A0002302C09322022A9714F410922102809103
:1012B000030161E0813019F0823021F460E08FE0B9
:1012C0000E94EB018091020161E0813019F08230CF
:1012D00021F460E080E10E94EB018091010161E076
:1012E000813019F0823021F460E081E10E94EB014D
:1012F0008091000161E0813019F0823021F460E0DA
:1013000082E10E94EB01809136028093030180917B
:101310002F02809302018091280280930101809125
:1013200021028093000169E170E080E090E00E947A
:101330006F02C114D10409F40FCD0E94F600882376
:1013400009F40ACD0E94000007CD052E97FB1EF47C
:1013500000940E94BC0957FD07D00E94D70907FCE2
:1013600003D04EF40C94BC095095409530952195CE
:101370003F4F4F4F5F4F08959095809570956195C1
:101380007F4F8F4F9F4F08950E94F909A59F900DA1
:10139000B49F900DA49F800D911D11240895B7FF57
:1013A0000C94C4090E94C409821B930B0895A1E206
:1013B0001A2EAA1BBB1BFD010DC0AA1FBB1FEE1FCF
:1013C000FF1FA217B307E407F50720F0A21BB30B1A
:1013D000E40BF50B661F771F881F991F1A9469F796
:1013E00060957095809590959B01AC01BD01CF01F2
:1013F0000895A29FB001B39FC001A39F700D811DEE
:101400001124911DB29F700D811D1124911D08950D
:10141000991B79E004C0991F961708F0961B881F46
:101420007A95C9F780950895EE0FFF1F0590F49106
:10143000E02D0994F894FFCF03030303000000009C
:101440002C018C00B9007901EA00C800DC000D0A0B
:101450000020003420737769746368657320666FB9
:1014600072207261696C77617973206F6E20646994
:101470006F72616D6100736F66747761726520775A
:10148000726F7465206279204E69637520464C4FF7
:101490005249434120286E69715F726F290053657C
:1014A00072766F3120746F204C6566742021005372
:1014B0006572766F3120746F2052696768742100FD
:1014C000536572766F3220746F204C6566742021EC
:1014D00000536572766F3220746F205269676874AA
:1014E0002100536572766F3320746F204C656674EB
:1014F000202100536572766F3320746F2052696724
:1015000068742100536572766F3420746F204C65C7
:101510006674202100536572766F3420746F2052F8
:06152000696768742100F8
:107800000C94343C0C94513C0C94513C0C94513CE1
:107810000C94513C0C94513C0C94513C0C94513CB4
:107820000C94513C0C94513C0C94513C0C94513CA4
:107830000C94513C0C94513C0C94513C0C94513C94
:107840000C94513C0C94513C0C94513C0C94513C84
:107850000C94513C0C94513C0C94513C0C94513C74
:107860000C94513C0C94513C11241FBECFEFD8E036
:10787000DEBFCDBF11E0A0E0B1E0ECE9FFE702C060
:1078800005900D92A230B107D9F712E0A2E0B1E065
:1078900001C01D92AD30B107E1F70E942D3D0C945F
:1078A000CC3F0C94003C982F959595959595959582
:1078B000905D8F708A307CF0282F295A8091C0000B
:1078C00085FFFCCF9093C6008091C00085FFFCCF60
:1078D0002093C6000895282F205DF0CF982F809127
:1078E000C00085FFFCCF9093C6000895EF92FF92F1
:1078F0000F931F93EE24FF2487018091C00087FD22
:1079000017C00894E11CF11C011D111D81E4E8164B
:1079100082E4F8068FE0080780E0180770F3E09132
:107920000401F091050109958091C00087FFE9CF1E
:107930008091C6001F910F91FF90EF9008950E94D3
:10794000763C982F8091C00085FFFCCF9093C600B5
:1079500091362CF490330CF09053892F089597555D
:10796000892F08951F930E949F3C182F0E949F3CCF
:107970001295107F810F1F9108951F93182F882350
:1079800021F00E94763C1150E1F71F9108951F935A
:10799000182F0E94763C803249F0809103018F5F5E
:1079A000809303018530C1F01F9108958091C0003C
:1079B00085FFFCCF84E18093C6008091C00085FFE5
:1079C000FCCF1093C6008091C00085FFFCCF80E102
:1079D0008093C6001F910895E0910401F091050184
:1079E00009951F9108950E94763C803241F0809164
:1079F00003018F5F80930301853081F008958091AA
:107A0000C00085FFFCCF84E18093C6008091C00058
:107A100085FFFCCF80E18093C6000895E0910401CA
:107A2000F09105010995089540E951E08823A1F0FE
:107A30002D9A28EE33E0FA013197F1F721503040CA
:107A4000D1F72D9828EE33E0FA013197F1F7215064
:107A50003040D1F7815061F708953F924F925F9285
:107A60006F927F928F929F92AF92BF92CF92DF924E
:107A7000EF92FF920F931F93CF93DF93000080E16B
:107A80008093C4001092C50088E18093C10086E015
:107A90008093C2005098589A259A81E00E94143D24
:107AA00024E1F22E9EE1E92E85E9D82E0FE0C02ECA
:107AB00010E1B12EAA24A394B1E49B2EA6E58A2E50
:107AC000F2E57F2EE0E26E2E79E4572E63E5462E36
:107AD00050E5352E0E94763C8033B1F18133B9F107
:107AE000803409F46FC0813409F476C0823409F41B
:107AF00085C0853409F488C0803531F1823521F1A3
:107B0000813511F1853509F485C0863509F48DC0BC
:107B1000843609F496C0843709F403C1853709F423
:107B200072C1863709F466C0809103018F5F80932C
:107B30000301853079F6E0910401F0910501099582
:107B40000E94763C803351F60E94F33CC3CF0E94E2
:107B5000763C803249F78091C00085FFFCCFF092DF
:107B6000C6008091C00085FFFCCF9092C600809136
:107B7000C00085FFFCCF8092C6008091C00085FFC9
:107B8000FCCF7092C6008091C00085FFFCCF609250
:107B9000C6008091C00085FFFCCF5092C600809146
:107BA000C00085FFFCCF4092C6008091C00085FFD9
:107BB000FCCF3092C6008091C00085FFFCCFB09210
:107BC000C60088CF0E94763C863808F4BDCF0E945C
:107BD000763C0E94F33C7ECF0E94763C803809F4CC
:107BE0009CC0813809F40BC1823809F43CC1883942
:107BF00009F48FC080E00E94C73C6CCF84E10E94F2
:107C0000BD3C0E94F33C66CF85E00E94BD3C0E94D3
:107C1000F33C60CF0E94763C809306010E94763C44
:107C2000809307010E94F33C55CF0E94763C80333D
:107C300009F41DC183E00E94BD3C80E00E94C73C66
:107C400049CF0E94763C809309020E94763C809343
:107C5000080280910C028E7F80930C020E94763C79
:107C6000853409F415C18091080290910902892B8D
:107C700089F000E010E00E94763CF801E85FFE4FDA
:107C800080830F5F1F4F80910802909109020817AF
:107C9000190788F30E94763C803209F045CF809125
:107CA0000C0280FF01C16091060170910701660F0F
:107CB000771F7093070160930601A0910802B091AD
:107CC00009021097C9F0E8E0F1E09B01AD014E0F09
:107CD0005F1FF999FECF32BD21BD819180BDFA9A17
:107CE000F99A2F5F3F4FE417F50799F76A0F7B1F4B
:107CF00070930701609306018091C00085FFFCCF5F
:107D0000F092C6008091C00085FFFCCFB092C60003
:107D1000E1CE83E00E94C73CDDCE82E00E94C73CFA
:107D2000D9CE0E94763C809309020E94763C8093D3
:107D300008028091060190910701880F991F909386
:107D40000701809306010E94763C853409F4A6C0A1
:107D500080910C028E7F80930C020E94763C8032D0
:107D600009F0B8CE8091C00085FFFCCFF092C6002C
:107D7000609108027091090261157105B9F140E046
:107D800050E080910C02A82FA170B82FB27011C0E2
:107D9000BB2309F45CC0E0910601F0910701319624
:107DA000F0930701E09306014F5F5F4F46175707B7
:107DB000E8F4AA2369F3F999FECF209106013091E6
:107DC000070132BD21BDF89A90B58091C00085FFB2
:107DD000FCCF9093C6002F5F3F4F30930701209355
:107DE00006014F5F5F4F4617570718F38091C00099
:107DF00085FDE5CE8091C00085FFF8CFE0CE81E023
:107E00000E94C73C67CE0E94763C803209F08CCE3F
:107E10008091C00085FFFCCFF092C6008091C00029
:107E200085FFFCCFE092C6008091C00085FFFCCFAB
:107E3000D092C6008091C00085FFFCCFC092C600E2
:107E40008091C00085FFFCCFB092C60043CEE09188
:107E50000601F091070194918091C00085FFFCCF4D
:107E60009093C6009CCF80E10E94C73C33CE0E9415
:107E7000763C0E94763C182F0E94763C112309F430
:107E800083C0113009F484C08FE00E94C73C22CE29
:107E900080910C02816080930C02E5CE80910C02EF
:107EA000816080930C0259CF809107018823880F4D
:107EB000880B8A2180930B02809106019091070123
:107EC000880F991F90930701809306018091080203
:107ED00080FF09C080910802909109020196909359
:107EE000090280930802F894F999FECF1127E091D6
:107EF0000601F0910701C8E0D1E08091080290915D
:107F00000902103091F40091570001700130D9F34B
:107F100003E000935700E89500915700017001308D
:107F2000D9F301E100935700E89509901990009169
:107F3000570001700130D9F301E000935700E89534
:107F40001395103498F011270091570001700130FB
:107F5000D9F305E000935700E895009157000170B0
:107F60000130D9F301E100935700E895329602976A
:107F700009F0C7CF103011F00296E5CF112480919F
:107F8000C00085FFB9CEBCCE8EE10E94C73CA2CD19
:0E7F900085E90E94C73C9ECDF894FFCF80008B
:00000001FF
